:0400000056EF00F0C7
:100008004482FACF35F0FBCF36F0E9CF37F0EACFAC
:1000180038F0E1CF39F0E2CF3AF0D9CF3BF0DACF80
:100028003CF0F3CF3DF0F4CF3EF0F6CF3FF0F7CF02
:1000380040F0F8CF41F0F5CF42F0F2BAF2A414D074
:10004800D59EF294F29E140E296E000E2A6E000EB2
:100058002B6E000E2C6EE4EC00F0C2B203D0C4CFBD
:100068008BFFC282F28ED58E42C0F5FF41C0F8FFE9
:1000780040C0F7FF3FC0F6FF3EC0F4FF3DC0F3FFAE
:100088003CC0DAFF3BC0D9FF3AC0E2FF39C0E1FF0C
:1000980038C0EAFF37C0E9FF36C0FBFF35C0FAFFBA
:1000A8004492110000EF02F0000E256E000E266E3D
:1000B800000E276E000E286E000E246E1BC001F085
:1000C8001CC002F01DC003F01EC004F0CD0E056E6A
:1000D8000A0E066E000E076E000E086EBCEC01F0EC
:1000E80001C00DF002C00EF003C00FF004C010F004
:1000F800000E116E000E126E010E136E000E146EBD
:1001080056EC01F00DC025F00EC026F00FC027F008
:1001180010C028F016D0242A25C01FF026C020F0D1
:1001280027C021F028C022F0223422322132203286
:100138001F321FC025F020C026F021C027F022C0A2
:1001480028F028BE08D0285027102610E4E1020E17
:10015800255CD8B0E0D724C01FF0010E1F2625C0AB
:1001680020F026C021F027C022F028C023F01F2A43
:1001780005D0D89020362136223623361F2EF9D7BF
:1001880020C025F021C026F022C027F023C028F087
:1001980028BE0BD028502710261004E1020E255C3B
:1001A800D8A003D024C0D5FF02D0080ED56E25C034
:1001B8001BF026C01CF027C01DF028C01EF012003E
:1001C800000E2D6E000E2E6E000E2F6E000E306E7D
:1001D800000E316E000E326E000E336E000E346E5D
:1001E80029C01BF02AC01CF02BC01DF02CC01EF02B
:1001F80058EC00F01BC02DF01CC02EF01DC02FF0D5
:100208001EC030F029C001F02AC002F02BC003F054
:100218002CC004F0CD0E056E0A0E066E000E076E99
:10022800000E086EBCEC01F001C00DF002C00EF02B
:1002380003C00FF004C010F02DC011F02EC012F052
:100248002FC013F030C014F056EC01F00D1E0E1E36
:100258000F1E101E0D2A000E0E220F221022000E55
:100268000D24316E000E0E20326E010E0F20336EFB
:10027800000E1020346E31C0D6FF31C00DF032C0F0
:100288000EF033C00FF034C010F0000E116E010EE6
:10029800126E000E136E000E146E56EC01F00D5027
:1002A800D76E1200000E166E14AE0AD0141E131E5E
:1002B800121E116C000E122213221422010E166E49
:1002C80010AE0AD0101E0F1E0E1E0D6C000E0E2250
:1002D8000F221022010E161A000E176E000E186E4D
:1002E800000E196E000E1A6E115012101310141011
:1002F800D8B42AD0010E156E06D0D8901136123611
:1003080013361436152A14AEF8D7D890173618367F
:1003180019361A3611500D5C12500E5813500F58DA
:1003280014501058D8A009D011500D5E12500E5A12
:1003380013500F5A1450105A1780D8901432133291
:1003480012321132152EE1D71650D8B408D01A1E21
:10035800191E181E176C000E182219221A2217C00F
:100368000DF018C00EF019C00FF01AC010F01200EE
:10037800000E096E000E0A6E000E0B6E000E0C6E5B
:1003880001A008D00550092606500A2207500B2262
:1003980008500C22D8900536063607360836D8900D
:1003A80004320332023201320150021003100410E9
:1003B800D8A4E6D709C001F00AC002F00BC003F0C8
:1003C8000CC004F01200000E946E000E0F013A6F7C
:1003D800000E8B6E050E0F01386F010E926E800EA7
:1003E800D56ED668D768000E896EE00EF26E010EE3
:1003F800C26E3F0EC06E1200436A449044920001E0
:0A04080006EF02F0E7EC01F0FFD769
:020000040020DA
:08000000FFFFFFFFFFFFFFFF00
:020000040030CA
:0E000000FF01193CFFB580FF0FC00FE00F405D
:00000001FF
