:0400000058EF00F0C5
:100008001182FACF02F0FBCF03F0E9CF04F0EACF78
:1000180005F0E1CF06F0E2CF07F0D9CF08F0DACF4C
:1000280009F0F3CF0AF0F4CF0BF0F6CF0CF0F7CFCE
:100038000DF0F8CF0EF0F5CF0FF0F2B0F2A616D013
:10004800F29EF29CF290F2968BA202D0010E01D0A1
:10005800000EFF0A016E01468B500118FD0B0118B6
:100068008B6E81B8FED7F286F28EF28C0FC0F5FF48
:100078000EC0F8FF0DC0F7FF0CC0F6FF0BC0F4FF71
:100088000AC0F3FF09C0DAFF08C0D9FF07C0E2FFC2
:1000980006C0E1FF05C0EAFF04C0E9FF03C0FBFF9B
:1000A80002C0FAFF119211006BEF00F0000E8B6E88
:1000B800000E0F013A6F000E946E100E936E628858
:1000C800629A629C629EF180C80EF26E1200106AFB
:1000D80011901192000171EF00F05AEC00F0FFD777
:020000040020DA
:08000000FFFFFFFFFFFFFFFF00
:020000040030CA
:0E000000FF01193CFFB580FF0FC00FE00F405D
:00000001FF
